:1000000026C040C03FC03EC03DC082C03BC03AC0D9
:1000100039C038C037C036C035C034C033C0000026
:10002000000037000000000038000000000036002B
:10003000020202020202020202020102040810206D
:100040002004100801020000040000000000112438
:100050001FBECFE5D1E0DEBFCDBF10E0A0E6B0E02F
:10006000E4E5F4E002C005900D92A036B107D9F79F
:1000700010E0A0E6B0E001C01D92AA36B107E1F79A
:10008000DBD1E6C1BDCF80916000882331F084E0F0
:1000900060E056D110926000089584E061E050D194
:1000A00081E0809360000895EF92FF920F931F9379
:1000B00083E084D1892BE9F064E670E080E090E091
:1000C00089D07AD07B018C010AC083E077D1892B5B
:1000D00031F0D9DF64E670E080E090E07BD06CD056
:1000E0006E197F09800B910B6C5B724080409040D1
:1000F00060F31F910F91FF90EF90089583E060E00F
:10010000E0D084E061E0DDD084E060E019D10895C2
:100110001F920F920FB60F9211242F933F934F937C
:100120005F936F937F938F939F93AF93BF93209130
:1001300065003091660040916700509168007091B1
:100140006900DA01C9014096A11DB11D672F605DEC
:100150006D3730F06D57DA01C9014196A11DB11D0F
:10016000609369008093650090936600A093670098
:10017000B09368008091610090916200A09163004B
:10018000B09164000196A11DB11D80936100909310
:100190006200A0936300B0936400BF91AF919F9100
:1001A0008F917F916F915F914F913F912F910F9020
:1001B0000FBE0F901F9018958FB7F894209165008F
:1001C0003091660040916700509168008FBFB9017F
:1001D000CA0108959B01AC017FB7F894809161003A
:1001E00090916200A0916300B091640062B708B67C
:1001F00001FE05C06F3F19F00196A11DB11D7FBF23
:10020000BA2FA92F982F8827860F911DA11DB11DE8
:1002100066E0880F991FAA1FBB1F6A95D1F7BC0122
:100220002EC0FFB7F8948091610090916200A09178
:100230006300B0916400E2B708B601FE05C0EF3F6D
:1002400019F00196A11DB11DFFBFBA2FA92F982F3C
:1002500088278E0F911DA11DB11DE6E0880F991F03
:10026000AA1FBB1FEA95D1F7861B970B885E9340A8
:10027000C0F2215030404040504068517C4F211521
:1002800031054105510569F6089578948AB5826073
:100290008ABD8AB581608ABD83B7826083BF83B718
:1002A000816083BF89B7826089BF80B7826080BF69
:1002B000329A319A309A379A08958CB580648CBD01
:1002C0000895CF93DF93482F50E0CA01865C9F4F7B
:1002D000FC013491405D5F4FFA018491882369F1FC
:1002E00090E0880F991FFC01E25EFF4FA591B49149
:1002F000FC01EC5DFF4FC591D491662351F42FB7FB
:10030000F8948C91932F909589238C9388818923DD
:100310000BC0623061F42FB7F8948C91932F9095B5
:1003200089238C938881832B88832FBF06C09FB736
:10033000F8948C91832B8C939FBFDF91CF9108957C
:10034000482F50E0CA018C5B9F4FFC012491CA01E9
:10035000865C9F4FFC019491405D5F4FFA013491A0
:10036000332359F12223A9F0223081F0233018F4ED
:10037000213079F408C0233011F0243051F48CB5C9
:100380008F7D8CBD06C08AB58F7702C08AB58F7D00
:100390008ABDE32FF0E0EE0FFF1FEC5DFF4FA5914C
:1003A000B4912FB7F894662321F48C91909589230A
:1003B00002C08C91892B8C932FBF0895682F70E019
:1003C000CB018C5B9F4FFC012491CB01865C9F4F3E
:1003D000FC014491605D7F4FFB019491992319F4D6
:1003E00020E030E027C02223A9F0223081F0233022
:1003F00018F4213079F408C0233011F0243051F47E
:100400008CB58F7D8CBD06C08AB58F7702C08AB54A
:100410008F7D8ABD892F90E0880F991F865D9F4F41
:10042000FC01A591B4918C9120E030E0842311F07F
:1004300021E030E0C9010895CF93DF9326DF3DDF4F
:100440005DDEC0E0D0E030DE2097E9F3D9DDFBCF00
:04045000F894FFCF4E
:00000001FF
