:1000000026C040C03FC03EC03DC06AC13BC03AC0F0
:1000100039C038C037C036C035C034C033C0000026
:10002000000037000000000038000000000036002B
:10003000020202020202020202020102040810206D
:100040002004100801020000040000000000112438
:100050001FBECFE5D1E0DEBFCDBF10E0A0E6B0E02F
:10006000E0E4F6E002C005900D92AA36B107D9F798
:1000700010E0AAE6B0E001C01D92AC37B107E1F78D
:10008000D1D2DCC2BDCF80916A0090916B00009705
:1000900029F48091640060E070E017C08130910520
:1000A00029F4809164006EE370E00FC08230910506
:1000B00029F4809164006CE770E007C083309105FB
:1000C00031F4809164006BEB70E0EDD108950497FA
:1000D0002CF0809164006FEF70E0E5D1089580E727
:1000E00097E1A0E0B0E080936E0090936F00A09342
:1000F0007000B093710080916000BCD120916800C5
:100100003091690082179307D4F152C08091620048
:10011000B1D1209168003091690082179307E4F40F
:1001200080916A0090916B00019690936B00809390
:100130006A00A9DF109267001092660080916C003F
:1001400061E032D26AE070E080E090E01DD1809101
:100150006C0060E029D227C080916E0090916F0002
:10016000A0917000B09171000197A109B10980932D
:100170006E0090936F00A0937000B0937100809117
:100180006E0090916F00A0917000B09171001816F0
:1001900019061A061B063CF48091660090916700D0
:1001A000892B09F0B3CF6CE271E080E090E0ECD0F5
:1001B000809160005FD120916800309169008217C2
:1001C000930734F081E090E090936700809366009D
:1001D000809162004FD120916800309169008217B0
:1001E00093070CF442C05AC08091600043D1209123
:1001F0006800309169008217930724F580916A00A6
:1002000090916B001816190634F4019790936B00C7
:1002100080936A0004C010926B0010926A0033DF72
:10022000109267001092660080916C0061E0BCD172
:100230006AE070E080E090E0A7D080916C0060E020
:10024000B3D127C080916E0090916F00A091700093
:10025000B09171000197A109B10980936E0090934C
:100260006F00A0937000B093710080916E00909128
:100270006F00A0917000B0917100181619061A064F
:100280001B063CF48091660090916700892B09F071
:10029000ABCF6CE271E080E090E076D080916200BC
:1002A000E9D020916800309169008217930734F0FB
:1002B00081E090E0909367008093660008958091BC
:1002C000600060E032D18091620060E02ED18091C8
:1002D000640061E02AD180916C0061E026D108952C
:1002E0001F920F920FB60F9211242F933F934F93AB
:1002F0005F936F937F938F939F93AF93BF9320915F
:10030000760030917700409178005091790070919B
:100310007A00DA01C9010296A11DB11D672F6A5F3B
:100320006D3730F06D57DA01C9010396A11DB11D7B
:1003300060937A008093760090937700A093780082
:10034000B09379008091720090917300A091740035
:10035000B09175000196A11DB11D8093720090931C
:100360007300A0937400B0937500BF91AF919F91FB
:100370008F917F916F915F914F913F912F910F904E
:100380000FBE0F901F9018959B01AC017FB7F8949A
:100390008091720090917300A0917400B0917500EB
:1003A00062B708B601FE05C06F3F19F00196A11DA6
:1003B000B11D7FBFBA2FA92F982F8827860F911DB7
:1003C000A11DB11D63E0880F991FAA1FBB1F6A956D
:1003D000D1F7BC012EC0FFB7F894809172009091C4
:1003E0007300A0917400B0917500E2B708B601FEE9
:1003F00005C0EF3F19F00196A11DB11DFFBFBA2F37
:10040000A92F982F88278E0F911DA11DB11DE3E004
:10041000880F991FAA1FBB1FEA95D1F7861B970B60
:10042000885E9340C0F221503040404050406851B7
:100430007C4F211531054105510569F608957894E1
:100440008AB582608ABD8AB581608ABD83B78260C1
:1004500083BF83B7816083BF89B7826089BF80B75C
:10046000826080BF80B7816080BF329A319A309AB3
:10047000379A0895982F863008F09650977080919B
:100480007B008295880F880F807C892B87B9369AEC
:100490003699FECF24B145B1942F80E030E0282B6F
:1004A000392BC90108951F93CF93DF93182FEB01C8
:1004B00061E03BD0209759F1CF3FD10559F1E12FB1
:1004C000F0E0EC5BFF4F8491823079F0833018F4D8
:1004D0008130D1F405C0833069F08430A9F40FC0B5
:1004E0008AB580688ABDC9BD18C08AB580628ABDD8
:1004F000C8BD13C08CB580628CBDCEBD0EC08CB59E
:1005000080628CBDCBBD09C0C038D1051CF4812FE1
:1005100060E002C0812F61E047D0DF91CF911F9151
:1005200008958CB580648CBD0895CF93DF93482FD8
:1005300050E0CA01865C9F4FFC013491405D5F4FE3
:10054000FA018491882369F190E0880F991FFC01DA
:10055000E25EFF4FA591B491FC01EC5DFF4FC591A8
:10056000D491662351F42FB7F8948C91932F9095E2
:1005700089238C93888189230BC0623061F42FB763
:10058000F8948C91932F909589238C938881832B59
:1005900088832FBF06C09FB7F8948C91832B8C93D0
:1005A0009FBFDF91CF910895482F50E0CA018C5B27
:1005B0009F4FFC012491CA01865C9F4FFC019491DE
:1005C000405D5F4FFA013491332359F12223A9F0A2
:1005D000223081F0233018F4213079F408C0233020
:1005E00011F0243051F48CB58F7D8CBD06C08AB5D6
:1005F0008F7702C08AB58F7D8ABDE32FF0E0EE0FC2
:10060000FF1FEC5DFF4FA591B4912FB7F8946623BF
:1006100021F48C919095892302C08C91892B8C9325
:100620002FBF0895CF93DF930ADF7BDF48DEC0E062
:10063000D0E055DD2097E9F3E3DCFBCFF894FFCF62
:0A064000090008000100010020037A
:00000001FF
